:100000000C9435000C945D000C945D000C945D0024
:100010000C945D000C945D000C945D000C945D00EC
:100020000C945D000C945D000C945D000C945D00DC
:100030000C945D000C945D000C945D000C945D00CC
:100040000C9441020C945D000C940F020C94E90195
:100050000C945D000C945D000C945D000C945D00AC
:100060000C945D000C945D008B0211241FBECFEF39
:10007000D8E0DEBFCDBF22E0A6E3B1E001C01D9213
:10008000AC32B207E1F711E0A0E0B1E0E4E9F9E059
:1000900002C005900D92A633B107D9F710E0C5E371
:1000A000D0E004C02197FE010E94BD04C433D107F3
:1000B000C9F70E94CA020C94C8040C940000CF92A5
:1000C000DF92EF92FF920F931F93CF93DF936C0118
:1000D0007A018B01C0E0D0E0CE15DF0589F0D801B0
:1000E0006D918D01D601ED91FC910190F081E02D93
:1000F000C6010995892B11F47E0102C02196ECCF2F
:10010000C701DF91CF911F910F91FF90EF90DF908A
:10011000CF900895FC01918D828D981761F0828DAA
:10012000DF01A80FB11D5D968C91928D9F5F9F732B
:10013000928F90E008958FEF9FEF0895FC01918DCD
:10014000828D981731F0828DE80FF11D858D90E03A
:1001500008958FEF9FEF0895FC01918D228D892FD7
:1001600090E0805C9F4F821B91098F7399270895BF
:1001700087E491E00E94AC0021E0892B09F420E0A3
:10018000822F0895FC01848DDF01A80FB11DA35AB1
:10019000BF4F2C91848D90E001968F739927848FA7
:1001A000A689B7892C93A089B1898C9180648C939E
:1001B000938D848D981306C00288F389E02D808189
:1001C0008F7D80830895EF92FF920F931F93CF93BB
:1001D000DF93EC0181E0888F9B8D8C8D981305C097
:1001E000E889F989808185FD24C0F62E0B8D10E009
:1001F0000F5F1F4F0F731127E02E8C8DE8120CC07C
:100200000FB607FCFACFE889F989808185FFF5CF21
:10021000CE010E94C200F1CF8B8DFE01E80FF11DCF
:10022000E35AFF4FF0820B8FEA89FB89808180625D
:1002300007C0EE89FF896083E889F989808180643D
:10024000808381E090E0DF91CF911F910F91FF902B
:10025000EF900895CF93DF93EC01888D8823C9F048
:10026000EA89FB89808185FD05C0A889B9898C91BF
:1002700086FD0FC00FB607FCF5CF808185FFF2CF5A
:10028000A889B9898C9185FFEDCFCE010E94C2006B
:10029000E7CFDF91CF91089580E090E0892B29F09E
:1002A0000E94B80081110C94000008952FB7F894B3
:1002B00060913B0170913C0180913D0190913E0124
:1002C0002FBF08958F929F92AF92BF92CF92DF92ED
:1002D000EF92FF926B017C010E9456014B015C0181
:1002E000C60ED71EE81EF91E0E9456016815790534
:1002F0008A059B0528F0C616D706E806F906A0F77A
:10030000FF90EF90DF90CF90BF90AF909F908F9035
:1003100008950E94C3046115710579F0FB010190F5
:100320000020E9F73197AF01461B570BDC01ED9137
:10033000FC910280F381E02D099480E090E0089523
:100340004F925F926F927F92EF92FF920F931F9363
:10035000CF93DF93CDB7DEB7A1970FB6F894DEBF8A
:100360000FBECDBF7C01FA01CB0119A2223008F4E7
:100370002AE08E010F5D1F4F422E512C612C712CF3
:10038000BF01A30192010E949B04F901CA0101501F
:1003900011096A3014F4605D01C0695CD8016C9386
:1003A000232B242B252B61F7B801C7010E948B0159
:1003B000A1960FB6F894DEBF0FBECDBFDF91CF91EF
:1003C0001F910F91FF90EF907F906F905F904F90F3
:1003D00008951F920F920FB60F9211242F933F93FF
:1003E0004F935F936F937F938F939F93AF93BF933D
:1003F000EF93FF9387E491E00E94C200FF91EF9199
:10040000BF91AF919F918F917F916F915F914F912C
:100410003F912F910F900FBE0F901F9018951F9234
:100420000F920FB60F9211242F938F939F93EF93F8
:10043000FF93E0915701F09158018081E0915D01B7
:10044000F0915E0182FD12C09081809160018F5F0A
:100450008F7320916101821751F0E0916001F0E00B
:10046000E95BFE4F958F8093600101C08081FF9111
:10047000EF919F918F912F910F900FBE0F901F9032
:1004800018951F920F920FB60F9211242F933F933E
:100490008F939F93AF93BF9380913B0190913C01C9
:1004A000A0913D01B0913E0130913A0123E0230F2C
:1004B0002D3720F40196A11DB11D05C026E8230F9C
:1004C0000296A11DB11D20933A0180933B019093A8
:1004D0003C01A0933D01B0933E0180913601909183
:1004E0003701A0913801B09139010196A11DB11DCC
:1004F0008093360190933701A0933801B09339016E
:10050000BF91AF919F918F913F912F910F900FBE0F
:100510000F901F901895E7E4F1E01382128288EEA5
:1005200093E0A0E0B0E084839583A683B78384E062
:1005300091E09183808385EC90E09587848784ECBB
:1005400090E09787868780EC90E0918B808B81ECA0
:1005500090E0938B828B82EC90E0958B848B86EC81
:1005600090E0978B868B118E128E138E148EE4EE94
:10057000F1E0168217821086118612861386148681
:10058000158616861786108A118A128A138A148A8B
:10059000158A0895789484B5826084BD84B581609D
:1005A00084BD85B5826085BD85B5816085BD80913E
:1005B0006E00816080936E001092810080918100B6
:1005C00082608093810080918100816080938100AE
:1005D000809180008160809380008091B100846070
:1005E0008093B1008091B00081608093B0008091D1
:1005F0007A00846080937A0080917A008260809390
:100600007A0080917A00816080937A0080917A00EC
:10061000806880937A001092C10010922802109294
:10062000290210922A0210922B021092E6011092D7
:10063000E7011092E8011092E90168EB7BE080E0AD
:1006400090E00E94620187E491E0909327028093FA
:100650002602E0915701F091580182E08083E091F9
:100660005301F09154011082E0915501F09156012F
:1006700080E1808310925F01E0915B01F0915C0169
:1006800086E08083E0915901F0915A018081806178
:100690008083E0915901F0915A01808188608083C4
:1006A000E0915901F0915A01808180688083E09146
:1006B0005901F0915A0180818F7D80830E945601FB
:1006C0006093E6017093E7018093E8019093E9015C
:1006D00060E171E080912602909127020E948B01D7
:1006E0006AE070E080E090E00E94620181E0809327
:1006F000FA0184EF882E99249394A12CB12C0E94A6
:100700005601672B682B692B41F40E945601623019
:1007100071058105910508F40BC10E945601609393
:100720004301709344018093450190934601C0902A
:100730003F01D0904001E0904101F09042016C15E2
:100740007D058E059F0540F460933F017093400145
:100750008093410190934201C0903F01D0904001AD
:10076000E0904101F09042019B01AC012C193D0940
:100770004E095F0969017A013AEFC316D104E10419
:10078000F10408F4D5C060933F0170934001809359
:100790004101909342018092F2019092F301A09264
:1007A000F401B092F5011092F6011092F701109247
:1007B000F8011092F9018091EA019091EB01A0916A
:1007C000EC01B091ED018093EE019093EF01A093C5
:1007D000F001B093F1010E9456016093EA01709319
:1007E000EB018093EC019093ED010E945601609320
:1007F000E6017093E7018093E8019093E9010E947C
:1008000056016B017C0162E271E0809126029091B9
:1008100027020E948B012AE041E050E060E070E096
:1008200080912602909127020E94A00169E271E066
:1008300080912602909127020E948B012AE0B70145
:10084000A60180912602909127020E94A0016BE2EE
:1008500071E080912602909127020E948B01809185
:10086000EA019091EB01A091EC01B091ED01B7018B
:10087000A601481B590B6A0B7B0B2AE080912602CC
:10088000909127020E94A0016BE271E08091260204
:10089000909127020E948B014091EA015091EB0157
:1008A0006091EC017091ED018091EE019091EF016A
:1008B000A091F001B091F101481B590B6A0B7B0B21
:1008C0002AE080912602909127020E94A0016DE209
:1008D00071E080912602909127020E948B010E9474
:1008E0005601AB01BC012AE08091260290912702BB
:1008F0000E94A001E0902602F09027026FE271E0D2
:10090000C7010E948B016FE171E0C7010E948B015A
:1009100065E070E080E090E00E9462010E94560174
:100920006093EA017093EB018093EC019093ED01E9
:100930000E944C01E4CEA1E21A2EAA1BBB1BFD01B2
:100940000DC0AA1FBB1FEE1FFF1FA217B307E407AE
:10095000F50720F0A21BB30BE40BF50B661F771F06
:10096000881F991F1A9469F76095709580959095E6
:100970009B01AC01BD01CF010895EE0FFF1F059053
:10098000F491E02D099481E090E0F8940C94C8046F
:04099000F894FFCF09
:1009940000000000E3005F00AC008A009E002A0112
:1009A400564D4450565F317C315F564D4450560D80
:1009B4000A00564D4450455F003A323A007C005FCD
:0609C400564D44504500B1
:107E0000112484B714BE81FFF0D085E080938100F7
:107E100082E08093C00088E18093C10086E0809377
:107E2000C20080E18093C4008EE0C9D0259A86E02C
:107E300020E33CEF91E0309385002093840096BBD3
:107E4000B09BFECF1D9AA8958150A9F7CC24DD24C4
:107E500088248394B5E0AB2EA1E19A2EF3E0BF2EE7
:107E6000A2D0813461F49FD0082FAFD0023811F036
:107E7000013811F484E001C083E08DD089C08234E0
:107E800011F484E103C0853419F485E0A6D080C0E4
:107E9000853579F488D0E82EFF2485D0082F10E0AE
:107EA000102F00270E291F29000F111F8ED06801E7
:107EB0006FC0863521F484E090D080E0DECF843638
:107EC00009F040C070D06FD0082F6DD080E0C81688
:107ED00080E7D80618F4F601B7BEE895C0E0D1E017
:107EE00062D089930C17E1F7F0E0CF16F0E7DF06D8
:107EF00018F0F601B7BEE89568D007B600FCFDCFD4
:107F0000A601A0E0B1E02C9130E011968C91119780
:107F100090E0982F8827822B932B1296FA010C0160
:107F200087BEE89511244E5F5F4FF1E0A038BF0790
:107F300051F7F601A7BEE89507B600FCFDCF97BE46
:107F4000E89526C08437B1F42ED02DD0F82E2BD052
:107F50003CD0F601EF2C8F010F5F1F4F84911BD097
:107F6000EA94F801C1F70894C11CD11CFA94CF0C13
:107F7000D11C0EC0853739F428D08EE10CD085E9AC
:107F80000AD08FE07ACF813511F488E018D01DD067
:107F900080E101D065CF982F8091C00085FFFCCF94
:107FA0009093C60008958091C00087FFFCCF809118
:107FB000C00084FD01C0A8958091C6000895E0E648
:107FC000F0E098E1908380830895EDDF803219F02E
:107FD00088E0F5DFFFCF84E1DECF1F93182FE3DFCA
:107FE0001150E9F7F2DF1F91089580E0E8DFEE27F6
:047FF000FF270994CA
:027FFE00040479
:0400000300007E007B
:00000001FF