:100000000C9495030C94BD030C94BD030C942D0823
:100010000C94BD030C94BD030C94BD030C94BD0360
:100020000C94BD030C94BD030C94BD030C94BD0350
:100030000C94BD030C94BD030C94BD030C94BD0340
:100040000C942F060C94BD030C9455050C942F05AD
:100050000C94BD030C94BD030C94BD030C94BD0320
:100060000C94FF060C94BD03204F4B004E6F20767E
:10007000616C696420726563656976657220736975
:10008000676E616C7320666F756E64212121202874
:100090004552524F52203129002E002E004D6561ED
:1000A000737572696E6720656E64706F696E7473C4
:1000B0002E2E2E2E004D6F766520737469636B2093
:1000C000276E6F73652075702720616E64206261F2
:1000D000636B20746F2063656E74657220746F208B
:1000E000636F6E74696E756500202D2000202D20D1
:1000F000004469676974616C20696E7075742031A1
:10010000312076616C7565733A00202D2000202D1A
:1001100020004469676974616C20696E7075742091
:1001200031302076616C7565733A00202D200020F7
:100130002D20004469676974616C20696E70757464
:100140002030392076616C7565733A00202D2000CF
:10015000202D20004469676974616C20696E707598
:10016000742030382076616C7565733A0048696791
:10017000682C206C6F7720616E642063656E7465F7
:10018000722076616C75657320666F756E6420648D
:100190007572696E6720736574757000000057682A
:1001A000656E20726561647920707574207468656D
:1001B00020737469636B73206261636B20696E20C6
:1001C00074686569722063656E74657220706F7300
:1001D0006974696F6E730047656E746C79206D6F1A
:1001E000766520616C6C2074686520737469636B3C
:1001F000732073696D756C74616E656F75736C795E
:1002000020746F20746865697220657874656E6407
:10021000730000004368616E6E656C20696E7665E0
:1002200072746564203D206E6F004368616E6E6578
:100230006C20696E766572746564203D2079657303
:100240000059617720697320636F6E6E6563746512
:100250006420746F206469676974616C20696E70D2
:10026000757420004D6F766520746865207961771C
:1002700020737469636B20746F2073696D756C6192
:100280007465206E6F736520726967687420616E93
:1002900064206261636B20746F2063656E746572A5
:1002A0000000004368616E6E656C20696E76657251
:1002B000746564203D206E6F004368616E6E656CEE
:1002C00020696E766572746564203D2079657300DF
:1002D000506974636820697320636F6E6E65637420
:1002E000656420746F206469676974616C20696E4D
:1002F00070757420004D6F76652074686520706994
:1003000074636820737469636B20746F2073696D04
:10031000756C617465206E6F736520757020616EF9
:1003200064206261636B20746F2063656E74657214
:100330000000004368616E6E656C20696E766572C0
:10034000746564203D206E6F004368616E6E656C5D
:1003500020696E766572746564203D20796573004E
:10036000526F6C6C20697320636F6E6E6563746589
:100370006420746F206469676974616C20696E70B1
:10038000757420004D6F76652074686520726F6CFF
:100390006C20737469636B20746F2073696D756C66
:1003A000617465206C6566742077696E672075706E
:1003B00020616E64206261636B20746F2063656EE0
:1003C0007465720000004368616E6E656C20696E32
:1003D000766572746564203D206E6F004368616EBF
:1003E0006E656C20696E766572746564203D207957
:1003F0006573005468726F74746C65206973206350
:100400006F6E6E656374656420746F2064696769DC
:1004100074616C20696E70757420004D6F76652074
:10042000746865207468726F74746C652073746985
:10043000636B20746F2066756C6C207468726F74C7
:10044000746C6520616E64206261636B20746F2040
:1004500063656E7465720000004469676974616C5D
:1004600020696E707574203131203D200044696729
:100470006974616C20696E707574203130203D2084
:10048000004469676974616C20696E70757420300E
:1004900039203D20004469676974616C20696E7081
:1004A0007574203038203D200043656E74657220DD
:1004B000706F736974696F6E732073746F726564A3
:1004C0002E0000506C61636520616C6C2073746950
:1004D000636B7320616E64207375627472696D73EF
:1004E00020696E207468652063656E746572207083
:1004F0006F736974696F6E2077697468696E2031F3
:1005000030207365636F6E64732E0000436865630B
:100510006B696E6720666F722076616C6964207209
:1005200065636569766572207369676E616C732EA9
:10053000003D3D3D3D3D3D3D3D3D3D3D3D3D3D3D28
:100540003D3D3D3D3D3D3D3D3D3D3D3D3D3D3D3DDB
:100550003D3D3D3D3D3D3D3D3D3D3D3D3D3D3D3DCB
:100560003D3D3D3D005472616E736D6974746572FA
:10057000207365747570003D3D3D3D3D3D3D3D3D05
:100580003D3D3D3D3D3D3D3D3D3D3D3D3D3D3D3D9B
:100590003D3D3D3D3D3D3D3D3D3D3D3D3D3D3D3D8B
:1005A0003D3D3D3D3D3D3D3D3D3D0000493243200B
:1005B000636C6F636B207370656564206973206E74
:1005C0006F742073657420746F203430306B487AF8
:1005D0002E20284552524F522038290049324320BC
:1005E000636C6F636B20737065656420697320634F
:1005F0006F72726563746C792073657420746F20F8
:100600003430306B487A2E00436865636B696E67DF
:100610002049324320636C6F636B2073706565649F
:100620002E003D3D3D3D3D3D3D3D3D3D3D3D3D3D46
:100630003D3D3D3D3D3D3D3D3D3D3D3D3D3D3D3DEA
:100640003D3D3D3D3D3D3D3D3D3D3D3D3D3D3D3DDA
:100650003D3D3D3D3D0053797374656D2063686594
:10066000636B003D3D3D3D3D3D3D3D3D3D3D3D3DA3
:100670003D3D3D3D3D3D3D3D3D3D3D3D3D3D3D3DAA
:100680003D3D3D3D3D3D3D3D3D3D3D3D3D3D3D3D9A
:100690003D3D3D3D3D3D00004E6F20737469636BF1
:1006A000206D6F76656D656E742064657465637426
:1006B000656420696E20746865206C6173742033F2
:1006C00030207365636F6E647321212120284552A9
:1006D000524F5220322900000000080002010000A1
:1006E00003040700000000000000000000000025D7
:1006F0000028002B0000000000240027002A00042E
:1007000004040404040404020202020202030303B8
:1007100003030301020408102040800102040810B2
:100720002001020408102000E31211241FBECFEFA5
:10073000D8E0DEBFCDBF23E0A0E5B1E001C01D924F
:10074000AF31B207E1F711E0A0E0B1E0E6EFF6E289
:1007500002C005900D92A035B107D9F713E0C5E9A5
:10076000D3E004C02197FE010E946E13C439D10763
:10077000C9F70E941E0C0C9479130C940000FC0124
:10078000918D828D981761F0828DDF01A80FB11DC8
:100790005D968C91928D9F5F9F73928F90E00895EC
:1007A0008FEF9FEF0895FC01918D828D981731F0A6
:1007B000828DE80FF11D858D90E008958FEF9FEFFA
:1007C0000895FC01918D228D892F90E0805C9F4FD0
:1007D000821B91098F739927089586E192E00E9408
:1007E000E10321E0892B09F420E0822F0895FC0128
:1007F000848DDF01A80FB11DA35ABF4F2C91848DAA
:1008000090E001968F739927848FA689B7892C93DE
:10081000A089B1898C9180648C93938D848D981379
:1008200006C00288F389E02D80818F7D8083089542
:10083000EF92FF920F931F93CF93DF93EC0181E030
:10084000888F9B8D8C8D981305C0E889F9898081EC
:1008500085FD24C0F62E0B8D10E00F5F1F4F0F7328
:100860001127E02E8C8DE8120CC00FB607FCFACFD2
:10087000E889F989808185FFF5CFCE010E94F703D1
:10088000F1CF8B8DFE01E80FF11DE35AFF4FF0828F
:100890000B8FEA89FB898081806207C0EE89FF891E
:1008A0006083E889F98980818064808381E090E0B9
:1008B000DF91CF911F910F91FF90EF900895CF930B
:1008C000DF93EC01888D8823C9F0EA89FB89808158
:1008D00085FD05C0A889B9898C9186FD0FC00FB62A
:1008E00007FCF5CF808185FFF2CFA889B9898C916B
:1008F00085FFEDCFCE010E94F703E7CFDF91CF91C7
:10090000089580E090E0892B29F00E94ED03811189
:100910000C94000008953FB7F894809112029091D2
:100920001302A0911402B091150226B5A89B05C030
:100930002F3F19F00196A11DB11D3FBFBA2FA92F5E
:10094000982F8827820F911DA11DB11DBC01CD01DB
:1009500042E0660F771F881F991F4A95D1F70895C7
:1009600085ED8093BC008091BC0084FDFCCF10928B
:10097000520108954091C401262F30E0240F311D0B
:1009800021323105DCF4209152012430C9F4FC01FC
:1009900080E090E0861758F43091C4012191DC0189
:1009A000AE55BE4FA30FB11D2C930196F3CF80918E
:1009B000C401680F6093C40180E0089581E0089548
:1009C00082E00895089581E090E0309156012091F1
:1009D0005501321710F480E090E0919581959109CE
:1009E00008958091560190915501891730F48F5FD9
:1009F0008093560180E090E008958FEF9FEF089577
:100A00008091550190E020915601821B9109089533
:100A1000CF93DF9300D0CDB7DEB7CB01642F4983EE
:100A20005A830E94BA044981842F5A81952F0F90CE
:100A30000F90DF91CF910895CF93DF931F92CDB7A1
:100A4000DEB7698361E0CE0101960E94BA0481E0BD
:100A500090E00F90DF91CF9108950E9474131F9240
:100A60000F920FB60F9211242F933F934F935F93E2
:100A70006F937F938F939F93AF93BF93EF93FF9366
:100A800086E192E00E94F703FF91EF91BF91AF9151
:100A90009F918F917F916F915F914F913F912F9196
:100AA0000F900FBE0F901F9018951F920F920FB6C8
:100AB0000F9211242F938F939F93EF93FF93E091C5
:100AC0002602F09127028081E0912C02F0912D0204
:100AD00082FD12C0908180912F028F5F8F732091D1
:100AE0003002821751F0E0912F02F0E0EA5EFD4FF4
:100AF000958F80932F0201C08081FF91EF919F918C
:100B00008F912F910F900FBE0F901F90189590E02E
:100B1000FC01E952F94F3491FC01ED5EF84F24914C
:100B2000FC01E150F94FE491EE2309F43BC033237B
:100B300039F1333091F038F43130A9F0323001F529
:100B400084B58F7D12C0373091F03830A1F0343049
:100B5000B9F4809180008F7D03C0809180008F77F1
:100B6000809380000DC084B58F7784BD09C08091CB
:100B7000B0008F7703C08091B0008F7D8093B0006C
:100B8000F0E0EE0FFF1FE551F94FA591B4918FB73B
:100B9000F894EC91611103C020952E2301C02E2BF7
:100BA0002C938FBF0895CF93DF93EC0160E08E818B
:100BB0000E94870561E08E810E94870560E08E813A
:100BC0000E9487058BE891E00197F1F7DF91CF91C3
:100BD00008958F929F92AF92BF92CF92DF92EF9241
:100BE000FF926B017C010E948B044B015C01C114DC
:100BF000D104E104F104F1F00E948B04DC01CB018B
:100C000088199909AA09BB09883E9340A105B10535
:100C100070F321E0C21AD108E108F10888EE880ECD
:100C200083E0981EA11CB11CC114D104E104F1049D
:100C300019F7DDCFFF90EF90DF90CF90BF90AF908E
:100C40009F908F9008952FB7F89460910E02709145
:100C50000F0280911002909111022FBF08951F92F0
:100C60000F920FB60F9211242F933F938F939F9360
:100C7000AF93BF9380910E0290910F02A09110024A
:100C8000B091110230910D0223E0230F2D3720F493
:100C90000196A11DB11D05C026E8230F0296A11DD6
:100CA000B11D20930D0280930E0290930F02A0932A
:100CB0001002B09311028091120290911302A09140
:100CC0001402B09115020196A11DB11D809312026C
:100CD00090931302A0931402B0931502BF91AF91A9
:100CE0009F918F913F912F910F900FBE0F901F906A
:100CF0001895CF92DF92EF92FF920F931F93CF93AD
:100D0000DF937C016C0187E0C80ED11CC0E0D0E00D
:100D1000062F10E0B8010C2E02C0759567950A9455
:100D2000E2F76170F60181916F010E9487052196BB
:100D3000C430D10579F7C701DF91CF911F910F9191
:100D4000FF90EF90DF90CF900C94D305CF92DF927D
:100D5000EF92FF920F931F93CF93DF93EC01F62E48
:100D6000642F8C810E9487058D818F3F19F060E090
:100D70000E9487058F850F2D10E084FF25C06E012E
:100D800087E0C80ED11CE12CF12CB8010E2C02C05A
:100D9000759567950A94E2F76170F60181916F018C
:100DA0000E948705FFEFEF1AFF0A88E0E816F104BA
:100DB00061F7CE01DF91CF911F910F91FF90EF90DE
:100DC000DF90CF900C94D305B80184E075956795BA
:100DD0008A95E1F7CE010E9479066F2DCE01DF9151
:100DE000CF911F910F91FF90EF90DF90CF900C94D7
:100DF000790641E00E94A60681E090E008951F92E6
:100E00000F920FB60F9211242F933F934F935F933E
:100E10006F937F938F939F93AF93BF93EF93FF93C2
:100E20008091B900887F803609F49CC068F58832CB
:100E300009F45BC090F4803109F454C038F488237D
:100E400009F4F6C0883009F44DC0F6C0883109F4C1
:100E50004CC0803209F45DC0EFC0803409F468C032
:100E600048F4803309F455C0883309F0E5C0809315
:100E7000E901D8C0803509F44FC0883509F45DC058
:100E8000883409F0D9C0D6C0883909F4C7C0A8F49D
:100E9000883709F467C038F4883609F463C08037AE
:100EA00009F460C0C9C0883809F4B8C0803909F4B1
:100EB0005FC0803809F0C0C05BC0803B09F486C0C9
:100EC00038F4803A09F466C0883A09F47FC0B4C0A7
:100ED000803C09F4A7C0883C09F4A4C0883B09F40D
:100EE0008AC0AAC080910C0210C090910B02809120
:100EF0000A02981770F5E0910B0281E08E0F809343
:100F00000B02F0E0E651FE4F80818093BB0085EC40
:100F100086C08093E9018EC0E0910B0281E08E0FC4
:100F200080930B028091BB00F0E0E651FE4F80837E
:100F300090910B0280910A026EC0E0910B0281E059
:100F40008E0F80930B028091BB00F0E0E651FE4FC4
:100F500080838091510181116DC081E080935001A7
:100F600084EA61C083E0809352011092E801CFCF00
:100F70008091E801803208F051C0E091E80181E001
:100F80008E0F8093E8018091BB00F0E0E853FE4FA4
:100F90008083BDCF85EC8093BC001092520180917C
:100FA000E801803230F4E091E801F0E0E853FE4FD0
:100FB00010826091E80170E0E091C601F091C701F4
:100FC00088EC91E009951092E80136C084E08093A6
:100FD00052011092C5011092C401E091C201F0913A
:100FE000C30109958091C401811105C081E08093FE
:100FF000C4011092A201E091C50181E08E0F80939F
:10100000C501F0E0EE55FE4F80818093BB009091CA
:10101000C5018091C401981708F479CF85E88093C1
:10102000BC000AC085EC8093BC001092520104C041
:101030001092E9010E94B004FF91EF91BF91AF912E
:101040009F918F917F916F915F914F913F912F91E0
:101050000F900FBE0F901F9018951F920F920FB612
:101060000F9211242F933F934F935F936F937F932E
:101070008F939F93AF93BF93EF93FF930E948B0443
:1010800060939E0170939F018093A0019093A101B2
:1010900020919D01189B0EC021111BC021E02093BF
:1010A0009D016093990170939A0180939B019093A5
:1010B0009C010FC0213069F410929D01209199018B
:1010C00030919A01AB01421B530B50936E01409338
:1010D0006D0120919801199B0EC021111BC021E0C8
:1010E00020939801609394017093950180939601E9
:1010F000909397010FC0213069F4109298012091CC
:10110000940130919501AB01421B530B50936A013E
:1011100040936901209193011A9B0EC021111BC0BD
:1011200021E02093930160938F017093900180934D
:101130009101909392010FC0213069F410929301B4
:1011400020918F0130919001AB01421B530B5093C2
:1011500066014093650120918E011B9B0EC02111F9
:101160001AC021E020938E0160938A0170938B0155
:1011700080938C0190938D010EC0213061F4109208
:101180008E0120918A0130918B01621B730B709349
:10119000620160936101FF91EF91BF91AF919F91C7
:1011A0008F917F916F915F914F913F912F910F9010
:1011B0000FBE0F901F901895CF93C0E080916B01E8
:1011C00090916C0120916D0130916E01AC014D5EEA
:1011D0005F4F421753074CF020916D0130916E0123
:1011E0004397281739070CF04DC080916701909103
:1011F00068012091690130916A01AC014D5E5F4F39
:101200004217530744F02091690130916A014397D6
:1012100028173907CCF580916301909164012091E2
:10122000650130916601AC014D5E5F4F4217530777
:1012300044F02091650130916601439728173907E2
:101240002CF580915F0190916001209161013091B6
:101250006201AC014D5E5F4F4217530744F020918D
:101260006101309162014397281739078CF464E6D5
:1012700070E080E090E00E94E905CF3008F49ECF56
:10128000CF910895C160B1CFC260C5CFC460D9CF3E
:10129000C860EDCFCF92DF92EF92FF920F931F9332
:1012A000CF93DF93D82F0E942306DC01CB01805D12
:1012B0009A48AF4FBF4F8093570190935801A09326
:1012C0005901B0935A01C0E0C0905701D090580125
:1012D000E0905901F0905A010E9423066C157D059B
:1012E0008E059F0528F5CC23A1F1D13031F4023EC3
:1012F00014400CF099C0C05897C0D23031F4023E6F
:1013000014400CF094C0C05892C0D33039F4023E5F
:1013100014400CF4C058C0935C018BC0D43009F069
:1013200088C0023E14400CF4C058C0935B0181C0D9
:10133000C111DBCF81E080936F0188E996E0DF91F6
:10134000CF911F910F91FF90EF90DF90CF900C9471
:101350006F0B6AEF70E080E090E00E94E9058091F9
:101360006D0190916E01873D9640ECF580916D0185
:1013700090916E01823E9440B4F180916901909108
:101380006A01873D9640D4F58091690190916A0188
:10139000823E94409CF18091650190916601873D69
:1013A0009640BCF58091650190916601823E944023
:1013B00084F18091610190916201873D964044F4EF
:1013C0008091610190916201823E94400CF07CCF4B
:1013D0008091890188608093890100916101109159
:1013E0006201C4E071CF809189018160809389019D
:1013F00000916D0110916E01C1E0BFCF8091890114
:101400008260809389010091690110916A01C2E0B4
:10141000C2CF809189018460809389010091650128
:1014200010916601C3E0C5CFC0935E0102C0C093B6
:101430005D01DF91CF911F910F91FF90EF90DF90B1
:10144000CF900895CF92DF92EF92FF920F931F9368
:10145000CF93DF936C017A018B01C0E0D0E0CE1511
:10146000DF0589F0D8016D918D01D601ED91FC91D8
:101470000190F081E02DC6010995892B11F47E01C0
:1014800002C02196ECCFC701DF91CF911F910F9140
:10149000FF90EF90DF90CF90089590E0FC01ED5E1B
:1014A000F84F2491FC01E150F94F8491882399F081
:1014B00090E0880F991FFC01EB50F94FA591B49172
:1014C000FC01E551F94F859194918FB7F894EC9117
:1014D000E22BEC938FBF0895EF92FF920F931F932F
:1014E000CF93DF93EC01623018F08F8588608F878F
:1014F0006B8B1C8A80E48D8B80E18E8B80E58F8BDB
:101500008C810E944D0A8D818F3F11F00E944D0AFF
:101510008E810E944D0A7E0187E0E80EF11C00E0FA
:1015200010E08F8584FD03C084E090E002C088E075
:1015300090E00817190744F4F70181917F010E9498
:101540004D0A0F5F1F4FEDCF8BE39DE00197F1F741
:1015500060E08C810E94870560E08E810E94870593
:101560008D818F3F19F060E00E9487056F8564FDD3
:101570001DC063E0CE010E9479060BE416E4C801A9
:101580000197F1F763E0CE010E947906C801019747
:10159000F1F763E0CE010E94790683E592E00197BE
:1015A000F1F762E0CE010E94790619C0606240E066
:1015B000CE010E94A6068BE496E40197F1F76F85B1
:1015C000606240E0CE010E94A60683E592E00197AA
:1015D000F1F76F85606240E0CE010E94A6066F853C
:1015E000606240E0CE010E94A60684E0888B40E065
:1015F0006CE0CE010E94A60640E061E0CE010E94B0
:10160000A6068BE39FE10197F1F782E0898B40E02A
:1016100066E0CE01DF91CF911F910F91FF90EF9087
:101620000C94A6068F929F92AF92BF92CF92DF92B8
:10163000EF92FF926B017C010E9423064B015C013B
:10164000C60ED71EE81EF91E0E94230668157905EE
:101650008A059B0528F0C616D706E806F906A0F706
:10166000FF90EF90DF90CF90BF90AF909F908F90C2
:1016700008950F931F93CF93DF938C01C0E0D0E0C8
:10168000F801EC0FFD1F6491662371F0E0911602E2
:10169000F09117020190F081E02D86E192E009952A
:1016A000892B11F02196ECCFCE01DF91CF911F91C4
:1016B0000F9108956115710579F0FB0101900020EB
:1016C000E9F73197AF01461B570BDC01ED91FC9117
:1016D0000280F381E02D099480E090E00895CF939B
:1016E000DF930E94390BEC0167E371E086E192E041
:1016F0000E945A0B8C0F9D1FDF91CF9108954F923E
:101700005F926F927F92EF92FF920F931F93CF930E
:10171000DF93CDB7DEB7A1970FB6F894DEBF0FBE4B
:10172000CDBF7C01FA01CB0119A2223008F42AE0D6
:101730008E010F5D1F4F422E512C612C712CBF0169
:10174000A30192010E944C13F901CA010150110931
:101750006A3014F4605D01C0695CD8016C93232B7E
:10176000242B252B61F7B801C7010E945A0BA196C3
:101770000FB6F894DEBF0FBECDBFDF91CF911F91A2
:101780000F91FF90EF907F906F905F904F90089532
:10179000CF92DF92EF92FF92CF93DF936B017C01A8
:1017A000E0911602F09117020190F081E02D6DE2B8
:1017B00086E192E00995EC0144275527BA014C19BE
:1017C0005D096E097F092AE086E192E00E947F0BA5
:1017D0008C0F9D1FDF91CF91FF90EF90DF90CF9006
:1017E0000895CF93DF93AC01990F660B770B77FFCA
:1017F00005C0CB01BA010E94C80B05C02AE086E1F2
:1018000092E00E947F0BEC0167E371E086E192E0D9
:101810000E945A0B8C0F9D1FDF91CF910895AC0150
:10182000990F660B770B77FF04C0CB01BA010C94BC
:10183000C80B2AE086E192E00C947F0B789484B583
:10184000826084BD84B5816084BD85B5826085BDBC
:1018500085B5816085BD80916E00816080936E004A
:10186000109281008091810082608093810080913C
:1018700081008160809381008091800081608093ED
:1018800080008091B10084608093B1008091B000AD
:1018900081608093B00080917A00846080937A00A8
:1018A00080917A00826080937A0080917A008160D2
:1018B00080937A0080917A00806880937A001092F9
:1018C000C1001092F7021092F8021092F9021092E1
:1018D000FA021092B5021092B6021092B70210925C
:1018E000B80268EB7BE080E090E00E94120B86E19A
:1018F00092E09093F6028093F502E0912602F09137
:10190000270212E01083E0912202F091230210825C
:10191000E0912402F0912502D0E1D08310922E02B2
:10192000E0912A02F0912B02C6E0C083E0912802E8
:10193000F0912902808180618083E0912802F091FA
:101940002902808188608083E0912802F091290239
:10195000808180688083E0912802F0912902808153
:101960008F7D80830E9423066093B5027093B60238
:101970008093B7029093B80268E271E08091F5021B
:101980009091F6020E945A0B6AE070E080E090E0CD
:101990000E94120B01E00093C90262E087E093E02D
:1019A0000E946C0A8CE00E944D0A80916800816060
:1019B0008093680080916B00816080936B008091C0
:1019C0006B00826080936B0080916B0084608093D9
:1019D0006B0080916B00886080936B0010925601C1
:1019E000109255011092540110925301109252011D
:1019F000009351011092500161E082E10E9487053D
:101A000061E083E10E9487058091B9008E7F809319
:101A1000B9008091B9008D7F8093B90088E48093EC
:101A2000B80085E48093BC00E0912602F091270283
:101A30001083E0912602F09127021082E0912202A9
:101A4000F09123021082E0912402F0912502D083CC
:101A500010922E02E0912A02F0912B02C083E091B5
:101A60002802F0912902808180618083E091280220
:101A7000F0912902808188608083E0912802F091B2
:101A80002902808180688083E0912802F0912902F8
:101A900080818F7D80836AEF70E080E090E00E941B
:101AA000E90594EFC92EDD24D394E12CF12C1CE040
:101AB000D1E00E942306672B682B692B41F40E941A
:101AC0002306623071058105910508F40BC10E945F
:101AD000230660938501709386018093870190931C
:101AE00088018090810190908201A0908301B09044
:101AF0008401681579058A059B0540F4609381018E
:101B0000709382018093830190938401809081017E
:101B100090908201A0908301B09084019B01AC0160
:101B2000281939094A095B0949015A013AEF831614
:101B30009104A104B10408F4D5C0609381017093AD
:101B400082018093830190938401C092C102D0925C
:101B5000C202E092C302F092C4021092C502109237
:101B6000C6021092C7021092C8028091B9029091E9
:101B7000BA02A091BB02B091BC028093BD029093C7
:101B8000BE02A093BF02B093C0020E9423066093DE
:101B9000B9027093BA028093BB029093BC020E9478
:101BA00023066093B5027093B6028093B7029093B8
:101BB000B8020E9423064B015C016AE371E0809148
:101BC000F5029091F6020E945A0B2AE041E050E0A3
:101BD00060E070E08091F5029091F6020E947F0B28
:101BE00061E471E08091F5029091F6020E945A0B37
:101BF0002AE0B501A4018091F5029091F6020E94BD
:101C00007F0B63E471E08091F5029091F6020E94EF
:101C10005A0B8091B9029091BA02A091BB02B09187
:101C2000BC02B501A401481B590B6A0B7B0B2AE0CF
:101C30008091F5029091F6020E947F0B63E471E0BF
:101C40008091F5029091F6020E945A0B4091B902E0
:101C50005091BA026091BB027091BC028091BD02AA
:101C60009091BE02A091BF02B091C002481B590BD7
:101C70006A0B7B0B2AE08091F5029091F6020E949C
:101C80007F0B65E471E08091F5029091F6020E946D
:101C90005A0B0E942306AB01BC012AE08091F50299
:101CA0009091F6020E947F0BA090F502B090F60290
:101CB00067E471E0C5010E945A0B67E371E0C5015A
:101CC0000E945A0B65E070E080E090E00E94120BE9
:101CD0000E9423066093B9027093BA028093BB02FC
:101CE0009093BC0287E996E00E946F0B83E696E032
:101CF0000E946F0B86E596E00E946F0B82E296E0F1
:101D00000E946F0B68EE73E080E090E00E94E905AE
:101D100088E096E00E946F0B68EE73E080E090E050
:101D20000E94E9051093B800D09380018091B8001B
:101D30008C3009F052C38CED95E00E946F0B8091BE
:101D40006F01811146C08BEA95E00E946F0B87E717
:101D500095E00E946F0B85E695E00E946F0B81E392
:101D600095E00E946F0B68EE73E080E090E00E94C7
:101D7000E9058CE095E00E94390B0E942306DC0106
:101D8000CB01805F984DAF4FBF4F80935701909329
:101D90005801A0935901B0935A01C0E080905701B7
:101DA00090905801A0905901B0905A010E942306CA
:101DB000681579058A059B0508F016C3CF3008F42D
:101DC0001EC388E690E00E946F0B8BE095E00E94B6
:101DD0006F0B80916F01811184C060ED77E080E02E
:101DE00090E00E94E90583EC94E00E946F0B89E08B
:101DF000A82EB12C68EE73E080E090E00E94E90527
:101E0000C5010E940F0C6EE471E086E192E00E9431
:101E10005A0B31E0A31AB10869F76EE471E086E16C
:101E200092E00E945A0B67E371E086E192E00E9423
:101E30005A0B80916D0190916E0190936C0180938B
:101E40006B018091690190916A0190936801809380
:101E50006701809165019091660190936401809380
:101E60006301809161019091620190936001809380
:101E70005F0182EC94E00E946F0B89EA94E00E947B
:101E80006F0B85E994E00E94390B80916D01909170
:101E90006E010E94F10B81E894E00E94390B809161
:101EA000690190916A010E94F10B8DE694E00E9415
:101EB000390B80916501909166010E94F10B89E5D3
:101EC00094E00E94390B80916101909162010E941F
:101ED000F10B88E594E00E946F0B87E594E00E9487
:101EE0006F0B80916F01811146C08BE194E00E94DD
:101EF0006F0B81E00E944A0983EF93E00E94390B47
:101F000080915E01877090E007960E94F10B8091AE
:101F10005E0187FF03C08CED93E002C086EC93E086
:101F20000E946F0B0E94DC0885EC93E00E946F0B0F
:101F300084EC93E00E946F0B84E893E00E946F0BA7
:101F400082E00E944A0980E693E00E94390B80916A
:101F50005D01877090E007960E94F10B80915D0112
:101F600087FF03C089E493E002C083E393E00E940B
:101F70006F0B0E94DC0880916F01811127C082E302
:101F800093E00E946F0B81E393E00E946F0B85EF5B
:101F900092E00E946F0B83E00E944A0980ED92E07C
:101FA0000E94390B80915C01877090E007960E9437
:101FB000F10B80915C0187FF03C089EB92E002C0C6
:101FC00083EA92E00E946F0B0E94DC0880916F010F
:101FD000811127C082EA92E00E946F0B81EA92E0B1
:101FE0000E946F0B84E692E00E946F0B84E00E94D7
:101FF0004A0981E492E00E94390B80915B0187706D
:1020000090E007960E94F10B80915B0187FF03C06F
:102010008AE292E002C084E192E00E946F0B0E948B
:10202000DC0880916F018111D5C183E192E00E94AB
:102030006F0B82E192E00E946F0B87ED91E00E94AE
:102040006F0B8EE991E00E946F0B80916D01909172
:102050006E0190937F0180937E0180916901909140
:102060006A0190937B0180937A0180916501909140
:102070006601909377018093760180916101909140
:102080006201909373018093720180916B01909132
:102090006C0120916D0130916E01AC014D5E5F4F7E
:1020A000421753077CF020916D0130916E014397E8
:1020B000281739073CF06AEF70E080E090E00E945A
:1020C000E905E3CF8DE990E00E946F0BC0E08091BD
:1020D0006B0190916C0120916D0130916E01AC010A
:1020E0004D5E5F4F421753070CF0D4C180916701DA
:1020F000909168012091690130916A01AC014D5EB7
:102100005F4F421753070CF0CFC18091630190914C
:1021100064012091650130916601AC014D5E5F4F15
:10212000421753070CF0CAC180915F019091600182
:102130002091610130916201AC014D5E5F4F421709
:1021400053070CF0C5C120916D0130916E01809153
:102150007E0190917F012817390744F480916D0129
:1021600090916E0190937F0180937E01209169018F
:1021700030916A0180917A0190917B01281739078B
:1021800044F48091690190916A0190937B0180935E
:102190007A012091650130916601809176019091DC
:1021A00077012817390744F4809165019091660101
:1021B00090937701809376012091610130916201C3
:1021C00080917201909173012817390744F480912E
:1021D000610190916201909373018093720120914B
:1021E0006D0130916E0180917C0190917D0182178B
:1021F000930744F480916D0190916E0190937D015D
:1022000080937C012091690130916A01809178016D
:10221000909179018217930744F48091690190911C
:102220006A01909379018093780120916501309142
:10223000660180917401909175018217930744F4AF
:10224000809165019091660190937501809374016E
:102250002091610130916201809170019091710132
:102260008217930744F480916101909162019093E9
:1022700071018093700164E670E080E090E00E945C
:10228000E905CF3008F423CF8DE991E00E946F0B70
:102290008CE991E00E946F0B8DE691E00E946F0B3C
:1022A00084E591E00E94390B80917E0190917F013D
:1022B0000E940F0C80E591E00E94390B80916B0128
:1022C00090916C010E940F0C8CE491E00E94390BFC
:1022D00080917C0190917D010E94F10B83E391E05C
:1022E0000E94390B80917A0190917B010E940F0C22
:1022F0008FE291E00E94390B809167019091680113
:102300000E940F0C8BE291E00E94390B80917801C2
:10231000909179010E94F10B82E191E00E94390BCA
:1023200080917601909177010E940F0C8EE091E0F0
:102330000E94390B80916301909164010E940F0CFF
:102340008AE091E00E94390B8091740190917501AF
:102350000E94F10B81EF90E00E94390B8091720195
:10236000909173010E940F0C8DEE90E00E94390B4A
:1023700080915F01909160010E940F0C89EE90E0C6
:102380000E94390B80917001909171010E94F10BB4
:1023900085EB90E00E946F0B80915C01813009F029
:1023A000A1C020916D0130916E0180916B019091DF
:1023B0006C018A569F4FC1E0821793070CF0B4C09E
:1023C00064E670E080E090E00E94E905CC2321F310
:1023D0000E94DC080E9481046CCB8CEA95E00E948C
:1023E0006F0BD0936F01ABCCC111EBCCD0936F01CD
:1023F00089E990E00E946F0B8CE690E0E4CC80913C
:102400006D0190916E01843398403CF480916D0190
:1024100090916E0185389340ACF58091690190915F
:102420006A01843398403CF48091690190916A017B
:10243000853893404CF58091650190916601843315
:1024400098403CF4809165019091660185389340F5
:10245000ECF48091610190916201843398403CF4E6
:102460008091610190916201853893408CF464EF12
:1024700071E080E090E00E94E9058BE990E00E9425
:10248000390B8CCCC160C9CFC260D5CFC460E1CF5D
:10249000C860EDCF20916D0130916E0143972817F0
:1024A00039070CF088C022CE2091690130916A0171
:1024B0004397281739070CF080C027CE209165017B
:1024C000309166014397281739070CF078C02CCE5D
:1024D00020916101309162014397281739070CF070
:1024E00070C031CE813881F420916D0130916E0140
:1024F00080916B0190916C0186599109C1E0281778
:1025000039070CF45DCF10C0823081F4209169014D
:1025100030916A0180916701909168018A569F4FBE
:10252000821793070CF445C0C0E04ACFC0E0823860
:1025300049F42091690130916A018091670190917D
:10254000680131C0833049F4209165013091660102
:10255000809163019091640115C0833849F4209102
:1025600065013091660180916301909164011BC007
:10257000843071F4209161013091620180915F019A
:10258000909160018A569F4F8217930794F018CF5D
:10259000843809F015CF209161013091620180915A
:1025A0005F019091600186599109281739070CF055
:1025B00007CFC1E005CFC16099CDC260A6CDC46090
:1025C000B3CDC860C0CDE6E1F2E01382128288EE9E
:1025D00093E0A0E0B0E084839583A683B78324E0F2
:1025E00031E03183208325EC30E03587248724ECEB
:1025F00030E03787268720EC30E0318B208B21ECD0
:1026000030E0338B228B22EC30E0358B248B26ECB0
:1026100030E0378B268B118E128E138E148EE3EBE7
:10262000F2E01682178210861186128613861486AF
:10263000158616861786108A118A128A138A148ABA
:10264000158AEBEFF2E01382128284839583A683CE
:10265000B78384E191E091838083E7E0F3E0138224
:10266000128284E291E0918380838CE084838FEFF7
:1026700085838BE0868385E0878384E0808783E0A1
:10268000818782E0828713861486158616861786D0
:1026900061E0CF010C946C0AA1E21A2EAA1BBB1BAD
:1026A000FD010DC0AA1FBB1FEE1FFF1FA217B3071E
:1026B000E407F50720F0A21BB30BE40BF50B661F34
:1026C000771F881F991F1A9469F7609570958095F8
:1026D00090959B01AC01BD01CF010895EE0FFF1F46
:1026E0000590F491E02D099481E090E0F8940C9429
:0626F0007913F894FFCFFE
:1026F600000000001804220AE103BF03D3035F04AD
:10270600000000001C0508050005F104E304E204CE
:1027160000000000F906220A564D4450565F317CEF
:10272600315F564D4450560D0A00564D4450455F94
:10273600003A323A007C005F564D44504500200076
:00000001FF
